:020000040800F2
:10000000A805002001010008BB1A00081913000808
:10001000B91A00086D0100085D1E0008000000000C
:10002000000000000000000000000000BF1A0008EF
:100030008B01000800000000BD1A0008C11A00086A
:100040001B0100081B0100081B0100081B01000820
:100050001B0100081B0100081B0100081B01000810
:100060001B0100081B0100081B0100081B01000800
:100070001B0100081B0100081B0100081B010008F0
:100080001B0100081B0100081B0100081B010008E0
:100090001B0100081B0100081B0100081B010008D0
:1000A0001B0100081B0100081B0100081B010008C0
:1000B0001B010008251B00081B0100081B0100088C
:1000C0001B0100081B0100081B0100081B010008A0
:1000D0001B0100081B0100081B010008511E00083D
:1000E0001B0100081B0100081B010008DFF80CD0F1
:1000F00000F02AF800480047B11F0008A8050020BA
:100100000648804706480047FEE7FEE7FEE7FEE7B1
:10011000FEE7FEE7FEE7FEE7FEE7FEE7231B00083B
:10012000ED000008D2B201E000F8012B491EFBD21D
:1001300070470022F6E710B513460A4604461946F2
:10014000FFF7F0FF204610BD064C074D06E0E068C3
:1001500040F0010394E8070098471034AC42F6D30E
:10016000FFF7C8FFAC240008CC240008FEE74218C3
:1001700010B5891E32F8024C89B202F075F884423B
:1001800001D0002010BD012010BD704772B6FEE7FF
:1001900010B590F821100022022905D004218163B6
:1001A00080F82020012010BD01680B6823F00E03A9
:1001B0000B6001680B6823F001030B6090F840307E
:1001C000C46B012101FA03F3636080F8211080F809
:1001D0002020104610BD000010B590F8211000241A
:1001E000022903D00421816301243DE001680A68EB
:1001F00022F00E020A6001680A6822F001020A6019
:100200001A4A0168914201D1012121E0174A1432B2
:10021000914201D110211BE0144A2832914201D1B0
:10022000891515E0114A3C32914201D189140FE041
:100230000E4A5032914202D14FF4803108E00B4A0D
:100240006432914202D14FF4801101E04FF080718D
:10025000064A083A5160012180F82110002180F8F7
:100260002010416B01B18847204610BD08000240B4
:1002700070B5044600F0FEF80546601C02D0044844
:100280000078044400F0F6F8401BA042FAD370BD99
:10029000040000202DE9F84FDFF8B891002409F19F
:1002A000040A0AF1040B23460F270BF1040EC9E0E0
:1002B0000125A5402A40AA427DD1674ED1F804C04D
:1002C000ACEB0608B44532D014DCBCF1030F3AD0D5
:1002D00009DCBCF1000F2AD0BCF1010F1CD0BCF12D
:1002E000020F31D11DE0BCF1110F17D0BCF1120F7C
:1002F0002AD119E0B8F5881F19D006DCB8F5803F7F
:1003000015D0B8F5801F1FD111E0B8F5001F0ED031
:10031000B8F5041F18D10AE0CB6815E0CB681B1DA7
:1003200012E0CB6808330FE0CB680C330CE08B682D
:100330002BB1012B4FF0080303D0456104E00423E7
:1003400002E0056100E00023FF2A01D8064601E033
:1003500000F104064FEA840501D9A5F12005D6F87D
:10036000008007FA05FC28EA0C0803FA05F548EABC
:100370000508C6F800804D68ED0062D5374DAE69BE
:1003800046F00106AE61AD6924F0030605F00105F3
:100390000095334D06EB050CDCF80850A607360F28
:1003A00007FA06F825EA0805DFF8B880404503D1CA
:1003B0004FF0000817E044E0DFF8AC80404502D180
:1003C0004FF001080FE0DFF8A480404502D14FF064
:1003D000020808E0DFF89880404502D14FF003089A
:1003E00001E04FF0040808FA06F848EA0508CCF8DE
:1003F00008804D68D9F80060ED034D4601D51643DD
:1004000000E096432E604D68DAF80060AD03554673
:1004100001D5164300E096432E604D68DBF800607E
:10042000ED025D4601D5164300E096432E604D680F
:10043000DEF80060AD02754601D5164300E0964334
:100440002E60641C0D682A46E5407FF431AFBDE89C
:10045000F88F00000004014000001110001002405D
:100460000000014000080140000C01400010014064
:10047000001401400148806870470000040000201B
:1004800002488168027811448160704704000020AE
:10049000074810B5016841F010010160032000F029
:1004A00075F8002000F006F800F024F8002010BDD8
:1004B0000020024070B50D4D04464FF47A71287843
:1004C000B1FBF0F00A490968B1FBF0F000F0ECFA7A
:1004D00048B9102C07D200222146501E00F036F8F1
:1004E00000206C6070BD012070BD00000400002081
:1004F000100000200C4808B5816941F001018161BC
:10050000816901F001010091C16941F08051C1612F
:10051000C06900F0805000900448416821F0E0611B
:1005200041F00071416008BD001002400000014030
:10053000002809DB00F01F020121914040098000E2
:1005400000F1E020C0F8001170470000F0B40E4B3D
:100550001B680C46C3F30223C3F10705042D00D921
:100560000425191D072901D2002300E0DB1E012606
:1005700006FA05F1491E214099409E40761E16401C
:100580003143F0BC01F07CBC0CED00E0064900F00A
:10059000070208684FF6FF03184040EA0220034AAA
:1005A00010430860704700000CED00E00000FA0501
:1005B0002DE9F0470F46050061D0434E306800F04A
:1005C0000700B84209D2306820F007003843306095
:1005D000306800F00700B84251D128683B4C8107D1
:1005E00012D5400703D5606840F4E0606060287869
:1005F000000703D5606840F4605060606068A968D7
:1006000020F0F000084360602878C00728D06868B0
:10061000012810D02168022810D0890700292EDA7D
:10062000616821F0030101436160FFF723FF804609
:1006300041F288390DE021688903EFE78901EDE790
:10064000FFF718FFA0EB0801494502D90320BDE8D8
:10065000F0876068696800F00C00B0EB810FEFD1A3
:10066000306800F00700B8420BD9306820F007006E
:1006700038433060306800F00700B84201D00120F4
:10068000E5E72878400705D56068E96820F4E06070
:10069000084360602878000706D56068296920F45F
:1006A000605040EAC100606000F038F86168084AB4
:1006B000C1F30311515CC840064908600648006850
:1006C000FFF7F8FE0020C2E70020024000100240C1
:1006D000942200081000002008000020044805496A
:1006E00000684968044AC1F30221515CC840704760
:1006F0001000002000100240A42200080448054910
:1007000000684968044AC1F3C221515CC84070477F
:100710001000002000100240A422000812A185B0A1
:100720000FC98DE80F0014A0144A006804905168A6
:10073000134801F00C03042B10D0082B0ED1C1F389
:100740008343C9031DF803000AD5516804AAC1F305
:100750004041515C0A4A5043B0FBF1F005B070478C
:1007600008494843FAE700000203040506070809A0
:100770000A0B0C0D0E0F10100102000000100240B9
:1007800000127A0000093D002DE9F84F040070D0F6
:100790002078C04DC00749D06868C0F381000128A7
:1007A00007D06868C0F38100022809D16868C003D7
:1007B00006D52868800339D560680028E7D035E081
:1007C0006068B0F5803F0BD010B1B0F5A02F11D00C
:1007D000286820F480302860286820F4802002E017
:1007E000286840F480302860606890B1FFF742FECE
:1007F00006460AE0286840F480202860F0E700BF41
:10080000FFF738FE801B642873D828688003F7D56B
:100810000CE0FFF72FFE064605E000BFFFF72AFEBB
:10082000801B6428F0D828688003F7D420789A4E7B
:1008300080074FF001094FF0000839D5686810F0C3
:100840000C0F07D06868C0F38100022809D16868DE
:10085000C00306D42868800714D52069012808D170
:1008600010E02069B0B1C6F80090FFF703FE07461C
:1008700005E00AE1FFF7FEFDC01B0228C4D8286886
:100880008007F7D52868616920F0F80040EAC100C8
:1008900028600DE0C6F80080FFF7ECFD074604E095
:1008A000FFF7E8FDC01B022823D828688007F7D48B
:1008B000207800072CD57948A169D9B1C0F80090FB
:1008C000FFF7D8FD074604E0FFF7D4FDC01B022860
:1008D0000FD8686A8007F7D571484FF4FA5100685D
:1008E000B0FBF1F0009000BF0098411E0091FAD2D9
:1008F0000EE080E0C0F80080FFF7BCFD074604E092
:10090000FFF7B8FDC01B022875D8686A8007F7D4C6
:100910002078400760D5E8690027C00008D4E8695E
:1009200040F08050E861E869012700F080500090B5
:100930005C480168C90513D40168834641F480719D
:100940000160FFF797FD824606E000BFFFF792FDCA
:10095000A0EB0A0064284ED8DBF80000C005F5D5EE
:10096000E06801280AD008B1052813D0286A20F0D1
:1009700001002862286A20F0040002E0286A40F0A2
:1009800001002862E06841F2883B98B1FFF772FDF0
:1009900082460BE0286A40F004002862EEE700BFC0
:1009A000FFF768FDA0EB0A0159455AD8286A80076D
:1009B000F6D50CE0FFF75EFD824605E0FFF75AFD35
:1009C000A0EB0A0159454CD8286A8007F6D41FB11C
:1009D000E86920F08050E861E06988B36968C1F394
:1009E0008101022944D00228C6F8608004D0FFF7B4
:1009F00041FD044638E034E0FFF73CFD074604E0E3
:100A0000FFF738FDC01B02282BD828688001F7D4D7
:100A1000206AB0F5803F05D16868A16820F40030F5
:100A200008436860D4E908010843696821F4741137
:100A300008436860C6F86090FFF71CFD044606E0B6
:100A400025E000BFFFF716FD001B022809D8286823
:100A50008001F7D51BE000BFFFF70CFD001B02284B
:100A600002D90320BDE8F88F28688001F4D40EE095
:100A70000128F7D06868226A00F48031914204D1DD
:100A8000616A00F47010884201D00120EAE700207A
:100A9000E8E70000001002400000424280044242A9
:100AA000100000200070004010B5401EB0F1807FA3
:100AB00001D3012010BD4FF0E02460610F216017C9
:100AC00001F0DEF90020A06107202061002010BDA8
:100AD0007047704770B590F83C20012A26D0012459
:100AE00080F83C40022280F83D2003685A689D68E7
:100AF00022F070060A6832435A600D4B02689A422F
:100B000008D0B2F1804F05D00A4B9A4202D00A4B6E
:100B10009A4204D1496825F080031943916080F816
:100B20003D40002180F83C10084670BD022070BD99
:100B3000002C0140000400400008004010B50400F3
:100B400003D094F83D0010B107E0012010BD002053
:100B500084F83C00204600F01FF8022084F83D0095
:100B6000211D206800F0E4FF012084F8460084F88D
:100B70003E0084F83F0084F8400084F8410084F887
:100B8000420084F8430084F8440084F8450084F867
:100B90003D00002010BD000008B500680B498842E8
:100BA00012D10B48C16941F00201C161C069002244
:100BB00000F00200009002211D20FFF7C7FCBDE8F5
:100BC00008401D20FFF7B4BC08BD00000004004031
:100BD0000010024090F83D10012901D0012070471B
:100BE000022180F83D100168CA6842F00102CA6023
:100BF00000680B49884208D0B0F1804F05D0094900
:100C0000884202D00849884204D1816801F0070176
:100C1000062903D0016841F00101016000207047FE
:100C2000002C014000040040000800400168CA6830
:100C300022F00102CA6001680A6A41F211131A42E5
:100C400007D10A6A9B101A4203D10A6822F00102F6
:100C50000A60012180F83D100020704770B50446FD
:100C600090F83C00012817D0012584F83C50022060
:100C700084F83D002068826822F0770222F47F42E7
:100C800082600868502830D00DDC20284DD005DC6B
:100C900098B310283BD148E0022070BD302844D0E2
:100CA000402834D139E0602828D0702806D0B0F52B
:100CB000805F2CD0B0F5005F29D10AE0CB68D1E984
:100CC0000121206800F06AFF2068816841F0770107
:100CD00009E0CB68D1E90121206800F05FFF2068BE
:100CE000816841F48041816011E0CA6849682068E8
:100CF00000F066FF5021206807E016E0CA684968E6
:100D0000206800F06EFF6021206800F051FF84F839
:100D10003D50002084F83C0070BDCA6849682068D6
:100D200000F04EFF40212068EFE7226801461046A0
:100D3000EBE7704770B50446006801694FF00005A5
:100D4000C943890715D4C168C943890711D4E91E6D
:100D5000016101202077206880698007204602D049
:100D6000FFF7E7FF04E000F098F8204600F096F85F
:100D7000257720680169C943490717D4C168C94369
:100D8000490713D46FF00401016102202077206825
:100D9000806910F4407F204602D0FFF7CAFF04E0CC
:100DA00000F07BF8204600F079F82577206801698B
:100DB000C943090716D4C168C943090712D46FF0A3
:100DC00008010161042020772068C069800720465F
:100DD00002D0FFF7AEFF04E000F05FF8204600F01D
:100DE0005DF8257720680169C943C90617D4C16831
:100DF000C943C90613D46FF01001016108202077A0
:100E00002068C06910F4407F204602D0FFF791FFB0
:100E100004E000F042F8204600F040F82577206812
:100E20000169C943C90708D1C168C943C90704D1C9
:100E3000891E0161204600F033F820680169C9432A
:100E4000090609D4C168C943090605D46FF08001B9
:100E500001612046FFF73CFE20680169C94349064D
:100E600009D4C168C943490605D46FF04001016146
:100E7000204600F023F820680169C94389060BD495
:100E8000C168C943890607D46FF02001016120467B
:100E9000BDE87040FFF71DBE70BD70477047000091
:100EA000044900680968884202D1034800F0D0BBB9
:100EB00070470000B80000201800002070477047FD
:100EC00070470000F8B5026804461068D16853699D
:100ED00010F00F0F4FF0000553D003F0010601F49E
:100EE000907737435FD0C20705D0CA0503D5226C7F
:100EF00042F001022264420705D5DA0703D0226CD2
:100F000042F002022264820705D5DA0703D0226C80
:100F100042F004022264020707D501F020023243A6
:100F200003D0226C42F008022264226C002A34D0E2
:100F3000800604D5880602D5204600F084FE20688D
:100F40004069216CC0F38010090700D430B32046FB
:100F500000F061FE2068416949061BD5416921F016
:100F600040014161A06BA8B158494163A06BFFF7F4
:100F700033F9002811D0A06B416B01B0BDE8F040FF
:100F8000084783060FD58B060DD52046BDE8F840EF
:100F900000F059BE2046FFF793FFF8BD2046FFF74B
:100FA0008FFF2564F8BD266B2023012E52D1C60683
:100FB00050D5CE064ED51068506800905069400656
:100FC0002AD5A16B086840680004000CEAD0A68D01
:100FD0008642E7D9E0858869202818D0D06820F4B7
:100FE0008070D0602068416921F001014161206872
:100FF000416921F04001416184F83E302563206859
:10100000C16821F01001C160A06BFFF7C1F8A08D8D
:10101000E18D401A81B219E0A08DE18D401A81B2B4
:10102000E08D0028BED00029BCD0D06820F490709C
:10103000D0602068426922F00102426184F83E30AB
:1010400025632068C26822F01002C2602046FFF7C4
:1010500036FFF8BD05062BD50D0629D594F83D00C1
:101060002128F6D1A068B0F5805F01D12069B0B128
:10107000206A411C2162216800784860E08C401E93
:101080000004000CE084E4D12068C16821F08001F4
:10109000C1602068C16841F04001C160F8BD206AAC
:1010A0000088C0F308005060206A801C2062E5E7D9
:1010B0004006F3D54806F1D5D168204621F040011D
:1010C000D16084F83D3000F026F9F8BD071C000817
:1010D00070B5040004D094F83D00002510B106E07E
:1010E000012070BD84F83C50204600F023F82420F5
:1010F00084F83D002068C16821F40051C160204699
:1011000000F0FCFD2068016921F490410161206834
:10111000416921F02A0141612068C16841F4005110
:10112000C1602564202084F83D0084F83E00002042
:1011300070BD000070B586B0002400940194029444
:10114000039403682B482A4E022103220515B3425B
:1011500021D1836943F480438361836903F480432D
:101160000493836943F0040383618069224E00F095
:10117000040004900802CDE900010392694630465C
:10118000FFF788F8CDE90054694630460294FFF72E
:1011900081F806B070BD194EB342FAD1C36943F469
:1011A0008023C361C36903F480230493836943F0FC
:1011B000080383618069CDE9005100F00800CDE9A2
:1011C00003200F4D69462846FFF764F8E814CDE97F
:1011D0000004694628460294FFF75CF800220121CA
:1011E0002720FFF7B3F92720FFF7A2F9D1E7000086
:1011F0000038014000100240000801400048004053
:10120000000C014090F83E30202B0ED159B152B164
:1012100090F83C30012B08D0012380F83C300023AB
:10122000036300F0C7BD0120704702207047000033
:1012300010B509490068096888420BD10748017850
:10124000074800F0EDF9BDE81040012203490248CB
:10125000FFF7D8BF10BD00004401002000000020AF
:10126000180000202DE9F843044690F83D001F4681
:1012700016460D4620284CD1C5B1BEB194F83C00AD
:10128000012846D0012084F83C004FF00008C4F843
:101290004080212084F83D00FFF7ECF8A6848146C9
:1012A000E684A068B0F5805F03D004E00120BDE8CB
:1012B000F883206928B12E465FF0000584F83C8051
:1012C0000EE00026FAE78021204600F08EFDA0B94E
:1012D000AEB116F8010B21684860E08C401EE08436
:1012E000E08C4B464FF0000200970028EBD14FF006
:1012F0004001204600F079FD30B10320D7E735F8F2
:10130000020BC0F30800E6E7202084F83D0000202F
:10131000CDE70220CBE77047FEE710B50446029800
:1013200021706270190AA170E370010A2171607165
:101330000621204600F098FFA071000AE0712046C7
:10134000D4F89820BDE81040082110472DE9F84F47
:101350000446DDE90A68D0F884001D4693468A46B3
:101360004FF0FF3700B180474FF00009A4F880909C
:101370005B460122514620460095FFF7CEFF41E033
:10138000B4F88000000433D5217851452BD1607822
:10139000012828D1B4F88000C0F30E012046FEF7E2
:1013A000E6FE00B3681EC11700EB5170012101EB8E
:1013B000E000C1B2E01C11E010F8012B002108E0B0
:1013C00002F001076D1E5208491C08F8017BADB2FE
:1013D000C9B20DB10829F3D35B1ED9B24A1ED3B2EC
:1013E000EAD2002701E06FF00107A4F880900BE03B
:1013F000052E01D9052000E03046311A8EB2D4F80E
:101400008C108847002EBBD1D4F8880000B18047EB
:101410003846BDE8F88F2DE9F84F0446DDE90A6843
:10142000D0F884001D4693468A464FF0FF3700B13E
:1014300080474FF00009A4F880905B460222514695
:1014400020460095FFF769FF41E0B4F880000004F2
:1014500033D5217851452BD16078022828D1B4F8B2
:101460008000C0F30E012046FEF781FE00B3681E27
:10147000C11700EB5170012101EBE000C1B2E01C8B
:1014800011E010F8012B002108E002F001076D1EA9
:101490005208491C08F8017BADB2C9B20DB1082948
:1014A000F3D35B1ED9B24A1ED3B2EAD2002701E0C1
:1014B0006FF00107A4F880900BE0052E01D90520FC
:1014C00000E03046311A8EB2D4F88C108847002ED6
:1014D000BBD1D4F8880000B180473846BDE8F88F0A
:1014E0002DE9F84F0446DDE90A68D0F884001D466E
:1014F00093468A464FF0FF3700B180474FF000090E
:10150000A4F880905B460322514620460095FFF7E1
:1015100004FF2CE0B4F8800000041ED5217851456A
:1015200016D16078032813D1B4F88000C0F30E01FF
:101530002046FEF71CFE58B1E01C04E030F8021B08
:1015400049BA28F8021B6D1EADB2F7D2002701E0A0
:101550006FF00107A4F880900BE0052E01D905205B
:1015600000E03046311A8EB2D4F88C108847002E35
:10157000D0D1D4F8880000B180473846BDE8F88F54
:101580002DE9F84F0446DDE90A68D0F884001D46CD
:1015900093468A464FF0FF3700B180474FF000096D
:1015A000A4F880905B460422514620460095FFF740
:1015B000B4FE2CE0B4F8800000041ED5217851451B
:1015C00016D16078042813D1B4F88000C0F30E015E
:1015D0002046FEF7CCFD58B1E01C04E030F8021BB9
:1015E00049BA28F8021B6D1EADB2F7D2002701E000
:1015F0006FF00107A4F880900BE0052E01D90520BB
:1016000000E03046311A8EB2D4F88C108847002E94
:10161000D0D1D4F8880000B180473846BDE8F88FB3
:1016200070B50446D0F890000D468047B4F88000AD
:10163000802808D2411CA4F880102554D4F89400C6
:10164000BDE87040004740F40040A4F8800070BD41
:1016500010B50446D0F890008047B4F88000002808
:1016600003D040F40040A4F8800010BD2DE9F047FD
:101670000446DDE90878D0F884001D4616468A46FF
:101680004FF0FF3900B1804784F800A00F20607050
:10169000A670300AE070280A2071681EC217012166
:1016A00000EB5270657101EBE000A07107261DE0B0
:1016B0000022082D01D3082000E02846C3B2581E9E
:1016C0000DE000BF97F800C0BCF1000F05D001FA93
:1016D00000FC4CEA020C0CF0FF02401E7F1C0028AC
:1016E000F0DAE81AA255761C85B2B6B2002DDFD129
:1016F0003146204600F0B8FDA055761CB1B2000A74
:101700006054A4F88050491CD4F8982089B220462F
:10171000904725E0B4F88000000415D521785145A4
:101720000CD160780F2809D1B4F88000C0F30E0105
:101730002046FEF71CFD08B1002001E06FF001001B
:101740008146A4F880500EE04046B8F1050F00D95C
:101750000520A8EB00011FFA81F8D4F88C10884707
:10176000B8F1000FD6D1D4F8880000B180474846C0
:10177000BDE8F0872DE9F0470446DDE90878D0F8A8
:1017800084001E4615468A464FF0FF3900B1804757
:1017900084F800A010206070A570280AE070300A5C
:1017A000207170006671A071072509E03888000A71
:1017B00060556D1CA8B217F8021B2154401C85B25D
:1017C000761EB6B2F2D22946204600F04DFD605595
:1017D0006D1CA9B2000A6054491C0025A4F8805071
:1017E000D4F8982089B22046904725E0B4F88000CC
:1017F000000415D5217851450CD16078102809D105
:10180000B4F88000C0F30E012046FEF7B0FC08B12A
:10181000002001E06FF001008146A4F880500EE046
:101820004046B8F1050F00D90520A8EB00011FFACA
:1018300081F8D4F88C108847B8F1000FD6D1D4F8CD
:10184000880000B180474846BDE8F0872DE9F047A1
:101850000446089DD0F884009946174688464FF004
:10186000FF3600B1804784F8008005206070A770C3
:10187000380AE0705FEA090000D0FF2020710027DD
:1018800067710621204600F0EFFCA071000AE071AC
:10189000A4F88070D4F8982008212046904722E0D0
:1018A000B4F88000000414D5217841450CD160784B
:1018B000052809D1B4F88000C0F30E012046FEF7D8
:1018C00056FC08B1002601E06FF00106A4F8807014
:1018D0000BE0052D01D9052000E02846291A8DB21C
:1018E000D4F88C108847002DDAD1D4F8880000B1E4
:1018F00080473046BDE8F0872DE9F0470446089D53
:10190000D0F884001F46904689464FF0FF3600B15C
:10191000804784F800900620607084F802804FEAC7
:101920001820E070380A207167710621204600F007
:101930009BFCA071000AE0710027A4F88070D4F825
:10194000982008212046904723E000BFB4F880008B
:10195000000414D5217849450CD16078062809D1B6
:10196000B4F88000C0F30E012046FEF700FC08B179
:10197000002601E06FF00106A4F880700BE0052D51
:1019800001D9052000E02846291A8DB2D4F88C1020
:101990008847002DDAD1D4F8880000B1804730465E
:1019A000BDE8F0870D4808B5816941F020018161EB
:1019B000816901F020010091816941F00801816194
:1019C000816901F008010091816941F004018161A0
:1019D000806900F00400009008BD00000010024083
:1019E00010B586B000241748009401940294039423
:1019F000049413490594016041F61F41C0E90114A4
:101A00006321C0E9031480218161FFF797F808B1D1
:101A1000FEF7BCFB4FF48050009069460948FFF781
:101A20001DF908B1FEF7B2FB049404A9054805941A
:101A3000FFF750F8002801D0FEF7A8FB06B010BD54
:101A400000040040B80000200C4810B50A490160AD
:101A50004FF416514160002181600C22C160C0E941
:101A600004128161C161FFF733FB002803D0BDE898
:101A70001040FEF78BBB10BD003801400001002074
:101A80000C4810B50A4901604FF41651416000211D
:101A900081600C22C160C0E904128161C161FFF75D
:101AA00017FB002803D0BDE81040FEF76FBB10BD48
:101AB0000048004044010020FEE7FEE77047704701
:101AC000FEF7DEBC30B58FB028216846FEF731FB4B
:101AD00014210AA8FEF72DFB01210804CDE900100E
:101AE0000024029402250491CDE907504FF4E01040
:101AF00009906846FEF748FE08B172B6FEE70F206F
:101B0000CDE90A054FF48060CDE90C4002210AA816
:101B10000E94FEF74DFD002801D072B6FEE70FB01F
:101B200030BD70470148FFF705B90000B80000203C
:101B3000F0B50268164B174C174D4FF0804798428E
:101B400005D0B84203D0A04201D0A84203D122F070
:101B500070064A683243984205D0B84203D0A0428A
:101B600001D0A84203D122F44074CA6822434C69D0
:101B700022F08002224302608A68C2620A6882629E
:101B8000984201D10969016301214161F0BD000062
:101B9000002C0140000400400008004010B584689B
:101BA00042EA032224F47F440A432243826010BDA8
:101BB000826822F070020A4342F007018160704798
:101BC00010B5036A046A24F001040462846924F0F5
:101BD000F00444EA021423F00A020A438461026218
:101BE00010BD10B5036A23F0100303628369046A11
:101BF00023F4704343EA023224F0A00343EA0111C4
:101C00008261016210BD10B5406A0021C185C184A6
:101C1000FFF756F910BD0168CA6822F49072CA60D5
:101C200001684A6922F001024A61016B012904D16D
:101C30000168CA6822F01002CA60202180F83E10B4
:101C400000210163704708B590F83E10222901D0A9
:101C5000022008BD82684FF480539A4201D1016985
:101C600021B1816A9A421BD04AB10AE00268816AB6
:101C70005268C2F308020A80816A891C08E002697E
:101C800072B10268526802F07F020A70816A491CD0
:101C90008162C18D491E0904090CC18503D019E078
:101CA00002685268F1E70168CA6822F02002CA603F
:101CB0000168CA6822F48072CA6001684A6922F029
:101CC00001024A61202180F83E10016B012903D0F6
:101CD000FFF7AEFA002008BD002101630168CA6861
:101CE00022F01002CA6001680A68D20602D50A68AA
:101CF00049680091818DFFF7E2F8EBE770B5044683
:101D000000680169E26821F44051114301612169D1
:101D1000A0680843616908432168CA6841F20C63FE
:101D20009A430243CA6020684169A26921F4407164
:101D3000114341611E492068884202D1FEF7DEFC52
:101D400001E0FEF7CBFC00EBC00101EB0012606884
:101D500064218000B2FBF0F3B3FBF1F36FF01806DF
:101D60007343B2FBF0F5B2FBF0F605EB83053223CB
:101D700003EB0515B5FBF1F5B6FBF1F605F0F00543
:101D800005EB0615B2FBF0F6B2FBF0F0B0FBF1F09C
:101D90006FF01802504306EB800003EB0010B0FB1D
:101DA000F1F0216800F00F002844886070BD000049
:101DB0000038014081628285C285002101642222AF
:101DC00080F83E2080F83C100168CA6842F48072B6
:101DD000CA6001684A6942F001024A610068C1684C
:101DE00041F02001C160002070472DE9F041984684
:101DF00017460E460446069D1DE0681C1BD02DB1FB
:101E0000FEF738FBA0EB0800A84214D92068C1688F
:101E100021F4D071C1602068416921F00101416164
:101E2000202084F83D0084F83E00002084F83C0027
:101E30000320BDE8F0812068006836EA000004D085
:101E40000020B842D9D00020F3E70120F9E70000D4
:101E50000148FFF737B8000044010020FEE700000A
:101E60000FB4054B10B503A9044A029800F027F8F7
:101E700010BC5DF814FB0000991F0008B40000209E
:101E80000907090E002804DB00F1E02080F80014A7
:101E9000704700F00F0000F1E02080F8141D70473B
:101EA00002E008C8121F08C1002AFAD17047704723
:101EB000002001E001C1121F002AFBD170472DE96B
:101EC000F84F9946924688460546002706E02528A1
:101ED0000AD051464A4690476D1C7F1C287800283E
:101EE000F5D13846BDE8F88F002315F8011F1846D4
:101EF0002E2915D115F8011F04232A290DD06FF0C2
:101F00002F022978A1F13004092C09D800EB8000B8
:101F100002EB400008446D1CF3E758F8040B6D1CFD
:101F20002A78002ADDD0632A07D0732A0FD0104602
:101F300051464A4690477F1C2AE018F8042B8DF83A
:101F4000002000218DF801106E46012103E058F8B1
:101F5000046B4FF0FF315A074FF0000401D409E041
:101F6000641C84420BDA8C42FADB325D002AF7D122
:101F700005E0641C8C42FCDB305D0028F9D127446D
:101F800004E016F8010B51464A469047641EF8D209
:101F90006D1CA3E7FEF76CB913B5642301226946F3
:101FA0000248FFF75FF900981CBD00000001002007
:101FB000FEF76EFAFFF786FDFFF7F4FCFFF710FD62
:101FC000FFF742FDFFF75CFD06496FF0010009686D
:101FD0000861012204490548FFF714F900F008F8E8
:101FE000FEE70000B80000200000002044010020AF
:101FF0002DE9FC414FF4FA75012300221946574898
:102000000095FFF723FC554C241F0028206001DABF
:1020100053A100E054A155A0FFF722FF6420FEF772
:1020200027F94AF6BB23002201214C480095FFF70F
:1020300063FC2060002801DA49A100E04AA152A017
:10204000FFF70EFF6420FEF713F901220A2155481D
:10205000FEF768F8534ECDE900650A2300220121FE
:102060003E48FFF703FB2060002801DA3CA100E0B6
:102070003DA14DA0FFF7F4FE6420FEF7F9F84948B2
:10208000FF2214210A30FEF74DF8464F0A230A3783
:10209000CDE90075002201213048FFF76BFB20607D
:1020A000002801DA2EA100E02FA144A0FFF7D8FEFE
:1020B0006420FEF7DDF8CDE900560A230022012155
:1020C0002648FFF743F92068002801DA24A100E040
:1020D00025A13FA0FFF7C4FE6420FEF7C9F8CDE9B3
:1020E00000560A23002201211C48FFF794F92068BA
:1020F000002801DA1AA100E01BA13AA0FFF7B0FE08
:102100006420FEF7B5F8CDE900570A23002201212B
:102110001248FFF7E5F92068002801DA10A100E075
:1021200011A135A0FFF79CFE6420FEF7A1F8CDE9D0
:1021300000570A23002201210848FFF721FA2068EE
:10214000002801DA06A100E007A131A0FFF788FE10
:102150006420FEF78DF80020BDE8FC811800002007
:102160006661696C656400006F6B000020777269BE
:1021700074652073696E676C6520636F696C2025D8
:10218000732E200D0A000000207772697465207399
:10219000696E676C65207265672025732E200D0AB5
:1021A00000000000880100202077726974652063B8
:1021B0006F696C732025732E200D0A0020777269D9
:1021C000746520726567732025732E200D0A000048
:1021D000207265616420636F696C732025732E2003
:1021E0000D0A0000207265616420646973637320C6
:1021F00025732E200D0A0000207265616420686F2F
:102200006C6420726567732025732E200D0A000010
:10221000207265616420696E7075742072656773E1
:102220002025732E200D0A007047704710B50C460C
:102230008AB2014664230348FFF714F800B1002472
:10224000204610BD4401002003490020096848626F
:102250000148FEF7BFBC0000B80000200148FEF7AF
:10226000E5BC0000B800002070B5094DFF231A46F8
:1022700005F5807606E000BF10F8014B54402A5D5A
:102280005A40335D491E89B2F6D242EA032070BD3E
:10229000AC2200080000000000000000010203045E
:1022A00006070809000000000102030400C1814084
:1022B00001C0804101C0804100C1814001C0804116
:1022C00000C1814000C1814001C0804101C0804106
:1022D00000C1814000C1814001C0804100C18140F6
:1022E00001C0804101C0804100C1814001C08041E6
:1022F00000C1814000C1814001C0804100C18140D6
:1023000001C0804101C0804100C1814000C18140C5
:1023100001C0804101C0804100C1814001C08041B5
:1023200000C1814000C1814001C0804101C08041A5
:1023300000C1814000C1814001C0804100C1814095
:1023400001C0804101C0804100C1814000C1814085
:1023500001C0804101C0804100C1814001C0804175
:1023600000C1814000C1814001C0804100C1814065
:1023700001C0804101C0804100C1814001C0804155
:1023800000C1814000C1814001C0804101C0804145
:1023900000C1814000C1814001C0804100C1814035
:1023A00001C0804101C0804100C1814000C0C10125
:1023B000C30302C2C60607C705C5C404CC0C0DCDB5
:1023C0000FCFCE0E0ACACB0BC90908C8D81819D925
:1023D0001BDBDA1A1EDEDF1FDD1D1CDC14D4D51555
:1023E000D71716D6D21213D311D1D010F03031F145
:1023F00033F3F23236F6F737F53534F43CFCFD3D75
:10240000FF3F3EFEFA3A3BFB39F9F83828E8E92964
:10241000EB2B2AEAEE2E2FEF2DEDEC2CE42425E514
:1024200027E7E62622E2E323E12120E0A06061A184
:1024300063A3A26266A6A767A56564A46CACAD6D34
:10244000AF6F6EAEAA6A6BAB69A9A86878B8B979A4
:10245000BB7B7ABABE7E7FBF7DBDBC7CB47475B5D4
:1024600077B7B67672B2B373B17170B050909151C4
:102470009353529296565797559594549C5C5D9DF4
:102480005F9F9E5E5A9A9B5B9959589888484989E4
:102490004B8B8A4A4E8E8F4F8D4D4C8C4484854594
:1024A000874746868242438341818040CC2400088E
:1024B00000000020B8000000A01E000884250008CD
:1024C000B8000020F0040000B01E0008000000006A
:1024D0000100000010000000000000000024F400D3
:1024E00000000000000000000000000000000000EC
:1024F00000000000000000000000000000000000DC
:1025000000000000000000000000000000000000CB
:1025100000000000000000000000000000000000BB
:1025200000000000000000000000000000000000AB
:10253000000000000000000000000000000000009B
:10254000000000000000000000000000000000008B
:10255000000000000000000000000000000000007B
:102560000000000000000000292200082B220008C3
:10257000951F00085D220008492200082D2200084E
:042580000000000057
:04000005080000ED02
:00000001FF
